{"abi":[{"type":"constructor","inputs":[],"stateMutability":"nonpayable"},{"type":"function","name":"anchorReceipt","inputs":[{"name":"eventType","type":"string","internalType":"string"},{"name":"refId","type":"string","internalType":"string"},{"name":"payloadHash","type":"bytes32","internalType":"bytes32"},{"name":"actorHash","type":"bytes32","internalType":"bytes32"}],"outputs":[{"name":"receiptId","type":"bytes32","internalType":"bytes32"}],"stateMutability":"nonpayable"},{"type":"function","name":"getReceipt","inputs":[{"name":"receiptId","type":"bytes32","internalType":"bytes32"}],"outputs":[{"name":"","type":"tuple","internalType":"struct ReceiptRegistry.Receipt","components":[{"name":"eventType","type":"string","internalType":"string"},{"name":"refId","type":"string","internalType":"string"},{"name":"payloadHash","type":"bytes32","internalType":"bytes32"},{"name":"actorHash","type":"bytes32","internalType":"bytes32"},{"name":"timestamp","type":"uint256","internalType":"uint256"}]}],"stateMutability":"view"},{"type":"function","name":"owner","inputs":[],"outputs":[{"name":"","type":"address","internalType":"address"}],"stateMutability":"view"},{"type":"event","name":"ReceiptAnchored","inputs":[{"name":"receiptId","type":"bytes32","indexed":true,"internalType":"bytes32"},{"name":"eventType","type":"string","indexed":false,"internalType":"string"},{"name":"refId","type":"string","indexed":false,"internalType":"string"},{"name":"payloadHash","type":"bytes32","indexed":false,"internalType":"bytes32"},{"name":"actorHash","type":"bytes32","indexed":false,"internalType":"bytes32"},{"name":"timestamp","type":"uint256","indexed":false,"internalType":"uint256"}],"anonymous":false}],"bytecode":{"object":"0x6080604052348015600e575f5ffd5b50335f5f6101000a81548173ffffffffffffffffffffffffffffffffffffffff021916908373ffffffffffffffffffffffffffffffffffffffff160217905550610cdb8061005b5f395ff3fe608060405234801561000f575f5ffd5b506004361061003f575f3560e01c80638da5cb5b14610043578063c743cf5414610061578063fcecbb6114610091575b5f5ffd5b61004b6100c1565b60405161005891906104d3565b60405180910390f35b61007b60048036038101906100769190610588565b6100e5565b604051610088919061063a565b60405180910390f35b6100ab60048036038101906100a69190610653565b610300565b6040516100b8919061078f565b60405180910390f35b5f5f9054906101000a900473ffffffffffffffffffffffffffffffffffffffff1681565b5f5f5f9054906101000a900473ffffffffffffffffffffffffffffffffffffffff1673ffffffffffffffffffffffffffffffffffffffff163373ffffffffffffffffffffffffffffffffffffffff1614610174576040517f08c379a000000000000000000000000000000000000000000000000000000000815260040161016b90610809565b60405180910390fd5b8686868686864260405160200161019197969594939291906108a3565b6040516020818303038152906040528051906020012090506040518060a0016040528088888080601f0160208091040260200160405190810160405280939291908181526020018383808284375f81840152601f19601f82011690508083019250505050505050815260200186868080601f0160208091040260200160405190810160405280939291908181526020018383808284375f81840152601f19601f8201169050808301925050505050505081526020018481526020018381526020014281525060015f8381526020019081526020015f205f820151815f01908161027a9190610b38565b5060208201518160010190816102909190610b38565b50604082015181600201556060820151816003015560808201518160040155905050807febf90de0d430edade4d704cd9c55c41375852b8c981f090d00601d739c10be84888888888888426040516102ee9796959493929190610c42565b60405180910390a29695505050505050565b610308610468565b60015f8381526020019081526020015f206040518060a00160405290815f8201805461033390610957565b80601f016020809104026020016040519081016040528092919081815260200182805461035f90610957565b80156103aa5780601f10610381576101008083540402835291602001916103aa565b820191905f5260205f20905b81548152906001019060200180831161038d57829003601f168201915b505050505081526020016001820180546103c390610957565b80601f01602080910402602001604051908101604052809291908181526020018280546103ef90610957565b801561043a5780601f106104115761010080835404028352916020019161043a565b820191905f5260205f20905b81548152906001019060200180831161041d57829003601f168201915b5050505050815260200160028201548152602001600382015481526020016004820154815250509050919050565b6040518060a0016040528060608152602001606081526020015f81526020015f81526020015f81525090565b5f73ffffffffffffffffffffffffffffffffffffffff82169050919050565b5f6104bd82610494565b9050919050565b6104cd816104b3565b82525050565b5f6020820190506104e65f8301846104c4565b92915050565b5f5ffd5b5f5ffd5b5f5ffd5b5f5ffd5b5f5ffd5b5f5f83601f840112610515576105146104f4565b5b8235905067ffffffffffffffff811115610532576105316104f8565b5b60208301915083600182028301111561054e5761054d6104fc565b5b9250929050565b5f819050919050565b61056781610555565b8114610571575f5ffd5b50565b5f813590506105828161055e565b92915050565b5f5f5f5f5f5f608087890312156105a2576105a16104ec565b5b5f87013567ffffffffffffffff8111156105bf576105be6104f0565b5b6105cb89828a01610500565b9650965050602087013567ffffffffffffffff8111156105ee576105ed6104f0565b5b6105fa89828a01610500565b9450945050604061060d89828a01610574565b925050606061061e89828a01610574565b9150509295509295509295565b61063481610555565b82525050565b5f60208201905061064d5f83018461062b565b92915050565b5f60208284031215610668576106676104ec565b5b5f61067584828501610574565b91505092915050565b5f81519050919050565b5f82825260208201905092915050565b8281835e5f83830152505050565b5f601f19601f8301169050919050565b5f6106c08261067e565b6106ca8185610688565b93506106da818560208601610698565b6106e3816106a6565b840191505092915050565b6106f781610555565b82525050565b5f819050919050565b61070f816106fd565b82525050565b5f60a083015f8301518482035f86015261072f82826106b6565b9150506020830151848203602086015261074982826106b6565b915050604083015161075e60408601826106ee565b50606083015161077160608601826106ee565b5060808301516107846080860182610706565b508091505092915050565b5f6020820190508181035f8301526107a78184610715565b905092915050565b5f82825260208201905092915050565b7f4e6f7420617574686f72697a65640000000000000000000000000000000000005f82015250565b5f6107f3600e836107af565b91506107fe826107bf565b602082019050919050565b5f6020820190508181035f830152610820816107e7565b9050919050565b5f81905092915050565b828183375f83830152505050565b5f61084a8385610827565b9350610857838584610831565b82840190509392505050565b5f819050919050565b61087d61087882610555565b610863565b82525050565b5f819050919050565b61089d610898826106fd565b610883565b82525050565b5f6108af82898b61083f565b91506108bc82878961083f565b91506108c8828661086c565b6020820191506108d8828561086c565b6020820191506108e8828461088c565b60208201915081905098975050505050505050565b7f4e487b71000000000000000000000000000000000000000000000000000000005f52604160045260245ffd5b7f4e487b71000000000000000000000000000000000000000000000000000000005f52602260045260245ffd5b5f600282049050600182168061096e57607f821691505b6020821081036109815761098061092a565b5b50919050565b5f819050815f5260205f209050919050565b5f6020601f8301049050919050565b5f82821b905092915050565b5f600883026109e37fffffffffffffffffffffffffffffffffffffffffffffffffffffffffffffffff826109a8565b6109ed86836109a8565b95508019841693508086168417925050509392505050565b5f819050919050565b5f610a28610a23610a1e846106fd565b610a05565b6106fd565b9050919050565b5f819050919050565b610a4183610a0e565b610a55610a4d82610a2f565b8484546109b4565b825550505050565b5f5f905090565b610a6c610a5d565b610a77818484610a38565b505050565b5f5b82811015610a9d57610a925f828401610a64565b600181019050610a7e565b505050565b601f821115610af05782821115610aef57610abc81610987565b610ac583610999565b610ace85610999565b6020861015610adb575f90505b808301610aea82840382610a7c565b505050505b5b505050565b5f82821c905092915050565b5f610b105f1984600802610af5565b1980831691505092915050565b5f610b288383610b01565b9150826002028217905092915050565b610b418261067e565b67ffffffffffffffff811115610b5a57610b596108fd565b5b610b648254610957565b610b6f828285610aa2565b5f60209050601f831160018114610ba0575f8415610b8e578287015190505b610b988582610b1d565b865550610bff565b601f198416610bae86610987565b5f5b82811015610bd557848901518255600182019150602085019450602081019050610bb0565b86831015610bf25784890151610bee601f891682610b01565b8355505b6001600288020188555050505b505050505050565b5f610c1283856107af565b9350610c1f838584610831565b610c28836106a6565b840190509392505050565b610c3c816106fd565b82525050565b5f60a0820190508181035f830152610c5b81898b610c07565b90508181036020830152610c70818789610c07565b9050610c7f604083018661062b565b610c8c606083018561062b565b610c996080830184610c33565b9897505050505050505056fea264697066735822122075763ee133f53ae13397fda4b9627303a4f648e8802017aedd18ee1e0d1a28d364736f6c63430008210033","linkReferences":{}},"methodIdentifiers":{"anchorReceipt(string,string,bytes32,bytes32)":"c743cf54","getReceipt(bytes32)":"fcecbb61","owner()":"8da5cb5b"},"id":16}