{"abi":[{"type":"function","name":"getRowConsent","inputs":[{"name":"patient","type":"address","internalType":"address"},{"name":"datasetId","type":"bytes32","internalType":"bytes32"},{"name":"rowId","type":"bytes32","internalType":"bytes32"}],"outputs":[{"name":"exists","type":"bool","internalType":"bool"},{"name":"allowed","type":"bool","internalType":"bool"},{"name":"timestamp","type":"uint256","internalType":"uint256"}],"stateMutability":"view"},{"type":"function","name":"setRowConsent","inputs":[{"name":"datasetId","type":"bytes32","internalType":"bytes32"},{"name":"rowId","type":"bytes32","internalType":"bytes32"},{"name":"allowed","type":"bool","internalType":"bool"}],"outputs":[],"stateMutability":"nonpayable"},{"type":"event","name":"RowConsentSet","inputs":[{"name":"patient","type":"address","indexed":true,"internalType":"address"},{"name":"datasetId","type":"bytes32","indexed":true,"internalType":"bytes32"},{"name":"rowId","type":"bytes32","indexed":true,"internalType":"bytes32"},{"name":"allowed","type":"bool","indexed":false,"internalType":"bool"},{"name":"timestamp","type":"uint256","indexed":false,"internalType":"uint256"}],"anonymous":false}],"bytecode":{"object":"0x6080604052348015600e575f5ffd5b5061045f8061001c5f395ff3fe608060405234801561000f575f5ffd5b5060043610610034575f3560e01c80634e8be0db14610038578063501fea341461006a575b5f5ffd5b610052600480360381019061004d91906102d1565b610086565b60405161006193929190610353565b60405180910390f35b610084600480360381019061007f91906103b2565b61014c565b005b5f5f5f5f5f5f8873ffffffffffffffffffffffffffffffffffffffff1673ffffffffffffffffffffffffffffffffffffffff1681526020019081526020015f205f8781526020019081526020015f205f8681526020019081526020015f206040518060600160405290815f82015f9054906101000a900460ff161515151581526020015f820160019054906101000a900460ff161515151581526020016001820154815250509050805f0151816020015182604001519350935093505093509350939050565b5f5f5f3373ffffffffffffffffffffffffffffffffffffffff1673ffffffffffffffffffffffffffffffffffffffff1681526020019081526020015f205f8581526020019081526020015f205f8481526020019081526020015f2090506001815f015f6101000a81548160ff02191690831515021790555081815f0160016101000a81548160ff02191690831515021790555042816001018190555082843373ffffffffffffffffffffffffffffffffffffffff167f2194f3e7d5425ec5b238406ff0bb59311681e7504ecde5e9150ce2e76c98181c8542604051610232929190610402565b60405180910390a450505050565b5f5ffd5b5f73ffffffffffffffffffffffffffffffffffffffff82169050919050565b5f61026d82610244565b9050919050565b61027d81610263565b8114610287575f5ffd5b50565b5f8135905061029881610274565b92915050565b5f819050919050565b6102b08161029e565b81146102ba575f5ffd5b50565b5f813590506102cb816102a7565b92915050565b5f5f5f606084860312156102e8576102e7610240565b5b5f6102f58682870161028a565b9350506020610306868287016102bd565b9250506040610317868287016102bd565b9150509250925092565b5f8115159050919050565b61033581610321565b82525050565b5f819050919050565b61034d8161033b565b82525050565b5f6060820190506103665f83018661032c565b610373602083018561032c565b6103806040830184610344565b949350505050565b61039181610321565b811461039b575f5ffd5b50565b5f813590506103ac81610388565b92915050565b5f5f5f606084860312156103c9576103c8610240565b5b5f6103d6868287016102bd565b93505060206103e7868287016102bd565b92505060406103f88682870161039e565b9150509250925092565b5f6040820190506104155f83018561032c565b6104226020830184610344565b939250505056fea2646970667358221220ea59da7b3b0c3375a8b7204d740e2245fafabb55ebd029f36631a6ff99af54bd64736f6c63430008210033","linkReferences":{}},"methodIdentifiers":{"getRowConsent(address,bytes32,bytes32)":"4e8be0db","setRowConsent(bytes32,bytes32,bool)":"501fea34"},"id":16}