{"abi":[{"type":"constructor","inputs":[],"stateMutability":"nonpayable"},{"type":"function","name":"anchorReceipt","inputs":[{"name":"eventType","type":"string","internalType":"string"},{"name":"refId","type":"string","internalType":"string"},{"name":"payloadHash","type":"bytes32","internalType":"bytes32"},{"name":"actorHash","type":"bytes32","internalType":"bytes32"}],"outputs":[{"name":"receiptId","type":"bytes32","internalType":"bytes32"}],"stateMutability":"nonpayable"},{"type":"function","name":"getReceipt","inputs":[{"name":"receiptId","type":"bytes32","internalType":"bytes32"}],"outputs":[{"name":"","type":"tuple","internalType":"struct ReceiptRegistry.Receipt","components":[{"name":"eventType","type":"string","internalType":"string"},{"name":"refId","type":"string","internalType":"string"},{"name":"payloadHash","type":"bytes32","internalType":"bytes32"},{"name":"actorHash","type":"bytes32","internalType":"bytes32"},{"name":"timestamp","type":"uint256","internalType":"uint256"}]}],"stateMutability":"view"},{"type":"function","name":"owner","inputs":[],"outputs":[{"name":"","type":"address","internalType":"address"}],"stateMutability":"view"},{"type":"event","name":"ReceiptAnchored","inputs":[{"name":"receiptId","type":"bytes32","indexed":true,"internalType":"bytes32"},{"name":"eventType","type":"string","indexed":false,"internalType":"string"},{"name":"refId","type":"string","indexed":false,"internalType":"string"},{"name":"payloadHash","type":"bytes32","indexed":false,"internalType":"bytes32"},{"name":"actorHash","type":"bytes32","indexed":false,"internalType":"bytes32"},{"name":"timestamp","type":"uint256","indexed":false,"internalType":"uint256"}],"anonymous":false}],"bytecode":{"object":"0x608060405234801561000f575f80fd5b50335f806101000a81548173ffffffffffffffffffffffffffffffffffffffff021916908373ffffffffffffffffffffffffffffffffffffffff160217905550610ce68061005c5f395ff3fe608060405234801561000f575f80fd5b506004361061003f575f3560e01c80638da5cb5b14610043578063c743cf5414610061578063fcecbb6114610091575b5f80fd5b61004b6100c1565b60405161005891906104d8565b60405180910390f35b61007b6004803603810190610076919061058d565b6100e4565b604051610088919061063f565b60405180910390f35b6100ab60048036038101906100a69190610658565b6102ff565b6040516100b891906107ae565b60405180910390f35b5f8054906101000a900473ffffffffffffffffffffffffffffffffffffffff1681565b5f805f9054906101000a900473ffffffffffffffffffffffffffffffffffffffff1673ffffffffffffffffffffffffffffffffffffffff163373ffffffffffffffffffffffffffffffffffffffff1614610173576040517f08c379a000000000000000000000000000000000000000000000000000000000815260040161016a90610828565b60405180910390fd5b8686868686864260405160200161019097969594939291906108c2565b6040516020818303038152906040528051906020012090506040518060a0016040528088888080601f0160208091040260200160405190810160405280939291908181526020018383808284375f81840152601f19601f82011690508083019250505050505050815260200186868080601f0160208091040260200160405190810160405280939291908181526020018383808284375f81840152601f19601f8201169050808301925050505050505081526020018481526020018381526020014281525060015f8381526020019081526020015f205f820151815f0190816102799190610b43565b50602082015181600101908161028f9190610b43565b50604082015181600201556060820151816003015560808201518160040155905050807febf90de0d430edade4d704cd9c55c41375852b8c981f090d00601d739c10be84888888888888426040516102ed9796959493929190610c4d565b60405180910390a29695505050505050565b610307610467565b60015f8381526020019081526020015f206040518060a00160405290815f8201805461033290610976565b80601f016020809104026020016040519081016040528092919081815260200182805461035e90610976565b80156103a95780601f10610380576101008083540402835291602001916103a9565b820191905f5260205f20905b81548152906001019060200180831161038c57829003601f168201915b505050505081526020016001820180546103c290610976565b80601f01602080910402602001604051908101604052809291908181526020018280546103ee90610976565b80156104395780601f1061041057610100808354040283529160200191610439565b820191905f5260205f20905b81548152906001019060200180831161041c57829003601f168201915b5050505050815260200160028201548152602001600382015481526020016004820154815250509050919050565b6040518060a0016040528060608152602001606081526020015f80191681526020015f80191681526020015f81525090565b5f73ffffffffffffffffffffffffffffffffffffffff82169050919050565b5f6104c282610499565b9050919050565b6104d2816104b8565b82525050565b5f6020820190506104eb5f8301846104c9565b92915050565b5f80fd5b5f80fd5b5f80fd5b5f80fd5b5f80fd5b5f8083601f84011261051a576105196104f9565b5b8235905067ffffffffffffffff811115610537576105366104fd565b5b60208301915083600182028301111561055357610552610501565b5b9250929050565b5f819050919050565b61056c8161055a565b8114610576575f80fd5b50565b5f8135905061058781610563565b92915050565b5f805f805f80608087890312156105a7576105a66104f1565b5b5f87013567ffffffffffffffff8111156105c4576105c36104f5565b5b6105d089828a01610505565b9650965050602087013567ffffffffffffffff8111156105f3576105f26104f5565b5b6105ff89828a01610505565b9450945050604061061289828a01610579565b925050606061062389828a01610579565b9150509295509295509295565b6106398161055a565b82525050565b5f6020820190506106525f830184610630565b92915050565b5f6020828403121561066d5761066c6104f1565b5b5f61067a84828501610579565b91505092915050565b5f81519050919050565b5f82825260208201905092915050565b5f5b838110156106ba57808201518184015260208101905061069f565b5f8484015250505050565b5f601f19601f8301169050919050565b5f6106df82610683565b6106e9818561068d565b93506106f981856020860161069d565b610702816106c5565b840191505092915050565b6107168161055a565b82525050565b5f819050919050565b61072e8161071c565b82525050565b5f60a083015f8301518482035f86015261074e82826106d5565b9150506020830151848203602086015261076882826106d5565b915050604083015161077d604086018261070d565b506060830151610790606086018261070d565b5060808301516107a36080860182610725565b508091505092915050565b5f6020820190508181035f8301526107c68184610734565b905092915050565b5f82825260208201905092915050565b7f4e6f7420617574686f72697a65640000000000000000000000000000000000005f82015250565b5f610812600e836107ce565b915061081d826107de565b602082019050919050565b5f6020820190508181035f83015261083f81610806565b9050919050565b5f81905092915050565b828183375f83830152505050565b5f6108698385610846565b9350610876838584610850565b82840190509392505050565b5f819050919050565b61089c6108978261055a565b610882565b82525050565b5f819050919050565b6108bc6108b78261071c565b6108a2565b82525050565b5f6108ce82898b61085e565b91506108db82878961085e565b91506108e7828661088b565b6020820191506108f7828561088b565b60208201915061090782846108ab565b60208201915081905098975050505050505050565b7f4e487b71000000000000000000000000000000000000000000000000000000005f52604160045260245ffd5b7f4e487b71000000000000000000000000000000000000000000000000000000005f52602260045260245ffd5b5f600282049050600182168061098d57607f821691505b6020821081036109a05761099f610949565b5b50919050565b5f819050815f5260205f209050919050565b5f6020601f8301049050919050565b5f82821b905092915050565b5f60088302610a027fffffffffffffffffffffffffffffffffffffffffffffffffffffffffffffffff826109c7565b610a0c86836109c7565b95508019841693508086168417925050509392505050565b5f819050919050565b5f610a47610a42610a3d8461071c565b610a24565b61071c565b9050919050565b5f819050919050565b610a6083610a2d565b610a74610a6c82610a4e565b8484546109d3565b825550505050565b5f90565b610a88610a7c565b610a93818484610a57565b505050565b5b81811015610ab657610aab5f82610a80565b600181019050610a99565b5050565b601f821115610afb57610acc816109a6565b610ad5846109b8565b81016020851015610ae4578190505b610af8610af0856109b8565b830182610a98565b50505b505050565b5f82821c905092915050565b5f610b1b5f1984600802610b00565b1980831691505092915050565b5f610b338383610b0c565b9150826002028217905092915050565b610b4c82610683565b67ffffffffffffffff811115610b6557610b6461091c565b5b610b6f8254610976565b610b7a828285610aba565b5f60209050601f831160018114610bab575f8415610b99578287015190505b610ba38582610b28565b865550610c0a565b601f198416610bb9866109a6565b5f5b82811015610be057848901518255600182019150602085019450602081019050610bbb565b86831015610bfd5784890151610bf9601f891682610b0c565b8355505b6001600288020188555050505b505050505050565b5f610c1d83856107ce565b9350610c2a838584610850565b610c33836106c5565b840190509392505050565b610c478161071c565b82525050565b5f60a0820190508181035f830152610c6681898b610c12565b90508181036020830152610c7b818789610c12565b9050610c8a6040830186610630565b610c976060830185610630565b610ca46080830184610c3e565b9897505050505050505056fea2646970667358221220d3b20d3aefd617333ea44e2288ee8cc41193ed02f1343f41f5e44c7222ac7e0a64736f6c63430008140033","linkReferences":{}},"methodIdentifiers":{"anchorReceipt(string,string,bytes32,bytes32)":"c743cf54","getReceipt(bytes32)":"fcecbb61","owner()":"8da5cb5b"},"id":16}